{
  "contractName": "realEstateTransaction",
  "abi": [
    {
      "inputs": [],
      "stateMutability": "nonpayable",
      "type": "constructor"
    },
    {
      "anonymous": false,
      "inputs": [
        {
          "indexed": false,
          "internalType": "string",
          "name": "_addressName",
          "type": "string"
        },
        {
          "indexed": false,
          "internalType": "uint16",
          "name": "propertyToken",
          "type": "uint16"
        },
        {
          "indexed": false,
          "internalType": "uint256",
          "name": "_price",
          "type": "uint256"
        }
      ],
      "name": "LogForSale",
      "type": "event"
    },
    {
      "anonymous": false,
      "inputs": [
        {
          "indexed": false,
          "internalType": "string",
          "name": "addressName",
          "type": "string"
        },
        {
          "indexed": false,
          "internalType": "uint16",
          "name": "propertyToken",
          "type": "uint16"
        }
      ],
      "name": "LogSold",
      "type": "event"
    },
    {
      "anonymous": false,
      "inputs": [
        {
          "indexed": true,
          "internalType": "address",
          "name": "_to",
          "type": "address"
        },
        {
          "indexed": false,
          "internalType": "uint16",
          "name": "tokenProperty",
          "type": "uint16"
        },
        {
          "indexed": false,
          "internalType": "string",
          "name": "status",
          "type": "string"
        }
      ],
      "name": "Mint",
      "type": "event"
    },
    {
      "anonymous": false,
      "inputs": [
        {
          "indexed": false,
          "internalType": "uint16",
          "name": "propertyToken",
          "type": "uint16"
        },
        {
          "indexed": false,
          "internalType": "address",
          "name": "_newOwner",
          "type": "address"
        },
        {
          "indexed": false,
          "internalType": "string",
          "name": "status",
          "type": "string"
        }
      ],
      "name": "NewOwner",
      "type": "event"
    },
    {
      "anonymous": false,
      "inputs": [
        {
          "indexed": true,
          "internalType": "address",
          "name": "previousOwner",
          "type": "address"
        },
        {
          "indexed": true,
          "internalType": "address",
          "name": "newOwner",
          "type": "address"
        }
      ],
      "name": "OwnershipTransferred",
      "type": "event"
    },
    {
      "anonymous": false,
      "inputs": [
        {
          "indexed": true,
          "internalType": "address",
          "name": "_to",
          "type": "address"
        },
        {
          "indexed": false,
          "internalType": "string",
          "name": "status",
          "type": "string"
        }
      ],
      "name": "noMint",
      "type": "event"
    },
    {
      "inputs": [
        {
          "internalType": "uint16",
          "name": "",
          "type": "uint16"
        }
      ],
      "name": "idToProperty",
      "outputs": [
        {
          "internalType": "string",
          "name": "",
          "type": "string"
        }
      ],
      "stateMutability": "view",
      "type": "function",
      "constant": true
    },
    {
      "inputs": [],
      "name": "owner",
      "outputs": [
        {
          "internalType": "address",
          "name": "",
          "type": "address"
        }
      ],
      "stateMutability": "view",
      "type": "function",
      "constant": true
    },
    {
      "inputs": [
        {
          "internalType": "uint16",
          "name": "",
          "type": "uint16"
        }
      ],
      "name": "properties",
      "outputs": [
        {
          "internalType": "string",
          "name": "propertyName",
          "type": "string"
        },
        {
          "internalType": "uint256",
          "name": "price",
          "type": "uint256"
        },
        {
          "internalType": "enum realEstateTransaction.State",
          "name": "state",
          "type": "uint8"
        },
        {
          "internalType": "address payable",
          "name": "seller",
          "type": "address"
        }
      ],
      "stateMutability": "view",
      "type": "function",
      "constant": true
    },
    {
      "inputs": [],
      "name": "renounceOwnership",
      "outputs": [],
      "stateMutability": "nonpayable",
      "type": "function"
    },
    {
      "inputs": [
        {
          "internalType": "address",
          "name": "newOwner",
          "type": "address"
        }
      ],
      "name": "transferOwnership",
      "outputs": [],
      "stateMutability": "nonpayable",
      "type": "function"
    },
    {
      "inputs": [
        {
          "internalType": "string",
          "name": "_address",
          "type": "string"
        }
      ],
      "name": "mintProperty",
      "outputs": [
        {
          "internalType": "string",
          "name": "",
          "type": "string"
        }
      ],
      "stateMutability": "nonpayable",
      "type": "function"
    },
    {
      "inputs": [
        {
          "internalType": "string",
          "name": "_addressName",
          "type": "string"
        },
        {
          "internalType": "uint256",
          "name": "_price",
          "type": "uint256"
        }
      ],
      "name": "listPropertyForSale",
      "outputs": [
        {
          "internalType": "uint16",
          "name": "",
          "type": "uint16"
        }
      ],
      "stateMutability": "nonpayable",
      "type": "function"
    },
    {
      "inputs": [
        {
          "internalType": "string",
          "name": "_addressName",
          "type": "string"
        }
      ],
      "name": "buyProperty",
      "outputs": [],
      "stateMutability": "payable",
      "type": "function",
      "payable": true
    }
  ],
  "bytecode": "0x608060405234801561001057600080fd5b5061002d61002261003260201b60201c565b61003a60201b60201c565b6100fe565b600033905090565b60008060009054906101000a900473ffffffffffffffffffffffffffffffffffffffff169050816000806101000a81548173ffffffffffffffffffffffffffffffffffffffff021916908373ffffffffffffffffffffffffffffffffffffffff1602179055508173ffffffffffffffffffffffffffffffffffffffff168173ffffffffffffffffffffffffffffffffffffffff167f8be0079c531659141344cd1fd0a4f28419497f9722a3daafe3b4186f6b6457e060405160405180910390a35050565b611ba68061010d6000396000f3fe60806040526004361061007b5760003560e01c8063d850c94c1161004e578063d850c94c1461013f578063dd75393e1461017c578063ecbef164146101b9578063f2fde38b146101d55761007b565b80634a3875e51461008057806369a4c4e7146100bd578063715018a6146100fd5780638da5cb5b14610114575b600080fd5b34801561008c57600080fd5b506100a760048036038101906100a29190610fff565b6101fe565b6040516100b491906110c5565b60405180910390f35b3480156100c957600080fd5b506100e460048036038101906100df9190610fff565b61029e565b6040516100f494939291906111b8565b60405180910390f35b34801561010957600080fd5b50610112610383565b005b34801561012057600080fd5b5061012961040b565b6040516101369190611225565b60405180910390f35b34801561014b57600080fd5b50610166600480360381019061016191906112a5565b610434565b60405161017391906110c5565b60405180910390f35b34801561018857600080fd5b506101a3600480360381019061019e919061131e565b61067e565b6040516101b0919061138d565b60405180910390f35b6101d360048036038101906101ce91906114d8565b61090c565b005b3480156101e157600080fd5b506101fc60048036038101906101f7919061154d565b610bd2565b005b6003602052806000526040600020600091509050805461021d906115a9565b80601f0160208091040260200160405190810160405280929190818152602001828054610249906115a9565b80156102965780601f1061026b57610100808354040283529160200191610296565b820191906000526020600020905b81548152906001019060200180831161027957829003601f168201915b505050505081565b60056020528060005260406000206000915090508060000180546102c1906115a9565b80601f01602080910402602001604051908101604052809291908181526020018280546102ed906115a9565b801561033a5780601f1061030f5761010080835404028352916020019161033a565b820191906000526020600020905b81548152906001019060200180831161031d57829003601f168201915b5050505050908060010154908060020160009054906101000a900460ff16908060020160019054906101000a900473ffffffffffffffffffffffffffffffffffffffff16905084565b61038b610cca565b73ffffffffffffffffffffffffffffffffffffffff166103a961040b565b73ffffffffffffffffffffffffffffffffffffffff16146103ff576040517f08c379a00000000000000000000000000000000000000000000000000000000081526004016103f690611627565b60405180910390fd5b6104096000610cd2565b565b60008060009054906101000a900473ffffffffffffffffffffffffffffffffffffffff16905090565b606082828080601f016020809104026020016040519081016040528093929190818152602001838380828437600081840152601f19601f82011690508083019250505050505050600060048260405161048d9190611683565b908152602001604051809103902060009054906101000a900461ffff1661ffff16146104ee576040517f08c379a00000000000000000000000000000000000000000000000000000000081526004016104e59061170c565b60405180910390fd5b60008484604051602001610503929190611751565b6040516020818303038152906040528051906020012060001c905033600160008361ffff1661ffff16815260200190815260200160002060006101000a81548173ffffffffffffffffffffffffffffffffffffffff021916908373ffffffffffffffffffffffffffffffffffffffff16021790555080600260003373ffffffffffffffffffffffffffffffffffffffff1673ffffffffffffffffffffffffffffffffffffffff16815260200190815260200160002060006101000a81548161ffff021916908361ffff16021790555080600486866040516105e5929190611751565b908152602001604051809103902060006101000a81548161ffff021916908361ffff1602179055503373ffffffffffffffffffffffffffffffffffffffff167fd990caf844a61c2ae557426a4af6167c16983c34b676c7e0e4c58cf860d01d9f8260405161065391906117dc565b60405180910390a26040518060800160405280604f8152602001611b22604f91399250505092915050565b600080600260003373ffffffffffffffffffffffffffffffffffffffff1673ffffffffffffffffffffffffffffffffffffffff16815260200190815260200160002060009054906101000a900461ffff1690503373ffffffffffffffffffffffffffffffffffffffff16600160008361ffff1661ffff16815260200190815260200160002060009054906101000a900473ffffffffffffffffffffffffffffffffffffffff1673ffffffffffffffffffffffffffffffffffffffff161461077a576040517f08c379a000000000000000000000000000000000000000000000000000000000815260040161077190611856565b60405180910390fd5b604051806080016040528086868080601f016020809104026020016040519081016040528093929190818152602001838380828437600081840152601f19601f820116905080830192505050505050508152602001848152602001600160028111156107e9576107e8611100565b5b81526020013373ffffffffffffffffffffffffffffffffffffffff16815250600560008361ffff1661ffff168152602001908152602001600020600082015181600001908051906020019061083f929190610f0e565b506020820151816001015560408201518160020160006101000a81548160ff0219169083600281111561087557610874611100565b5b021790555060608201518160020160016101000a81548173ffffffffffffffffffffffffffffffffffffffff021916908373ffffffffffffffffffffffffffffffffffffffff1602179055509050507f2c33e0510c0d1fd600e5a01f9fe217f2aac4b216c9ffc4a24241271119fd2232858583866040516108f994939291906118a3565b60405180910390a1809150509392505050565b80600060048260405161091f9190611683565b908152602001604051809103902060009054906101000a900461ffff169050600073ffffffffffffffffffffffffffffffffffffffff16600560008361ffff1661ffff16815260200190815260200160002060020160019054906101000a900473ffffffffffffffffffffffffffffffffffffffff1673ffffffffffffffffffffffffffffffffffffffff1614158015610a085750600160028111156109c8576109c7611100565b5b600560008361ffff1661ffff16815260200190815260200160002060020160009054906101000a900460ff166002811115610a0657610a05611100565b5b145b610a1157600080fd5b826000600482604051610a249190611683565b908152602001604051809103902060009054906101000a900461ffff169050600560008261ffff1661ffff16815260200190815260200160002060010154341015610a6e57600080fd5b6000600486604051610a809190611683565b908152602001604051809103902060009054906101000a900461ffff169050600560008261ffff1661ffff16815260200190815260200160002060020160019054906101000a900473ffffffffffffffffffffffffffffffffffffffff1673ffffffffffffffffffffffffffffffffffffffff166108fc349081150290604051600060405180830381858888f19350505050158015610b23573d6000803e3d6000fd5b506002600560008361ffff1661ffff16815260200190815260200160002060020160006101000a81548160ff02191690836002811115610b6657610b65611100565b5b02179055507f9945a0018add6bd764026bb624584fe1ec615dbdf4f0c701541bb103aec95fdd600560008361ffff1661ffff16815260200190815260200160002060000182604051610bb9929190611978565b60405180910390a1610bca81610d96565b505050505050565b610bda610cca565b73ffffffffffffffffffffffffffffffffffffffff16610bf861040b565b73ffffffffffffffffffffffffffffffffffffffff1614610c4e576040517f08c379a0000000000000000000000000000000000000000000000000000000008152600401610c4590611627565b60405180910390fd5b600073ffffffffffffffffffffffffffffffffffffffff168173ffffffffffffffffffffffffffffffffffffffff161415610cbe576040517f08c379a0000000000000000000000000000000000000000000000000000000008152600401610cb590611a1a565b60405180910390fd5b610cc781610cd2565b50565b600033905090565b60008060009054906101000a900473ffffffffffffffffffffffffffffffffffffffff169050816000806101000a81548173ffffffffffffffffffffffffffffffffffffffff021916908373ffffffffffffffffffffffffffffffffffffffff1602179055508173ffffffffffffffffffffffffffffffffffffffff168173ffffffffffffffffffffffffffffffffffffffff167f8be0079c531659141344cd1fd0a4f28419497f9722a3daafe3b4186f6b6457e060405160405180910390a35050565b33600160008361ffff1661ffff16815260200190815260200160002060006101000a81548173ffffffffffffffffffffffffffffffffffffffff021916908373ffffffffffffffffffffffffffffffffffffffff16021790555033600560008361ffff1661ffff16815260200190815260200160002060020160016101000a81548173ffffffffffffffffffffffffffffffffffffffff021916908373ffffffffffffffffffffffffffffffffffffffff1602179055506000600560008361ffff1661ffff16815260200190815260200160002060020160006101000a81548160ff02191690836002811115610e8f57610e8e611100565b5b02179055507fc494e91d94ebe51a01ef8bea838fecf401a32379e5279ac20d0cedaf546a963081600560008461ffff1661ffff16815260200190815260200160002060020160019054906101000a900473ffffffffffffffffffffffffffffffffffffffff16604051610f03929190611ae5565b60405180910390a150565b828054610f1a906115a9565b90600052602060002090601f016020900481019282610f3c5760008555610f83565b82601f10610f5557805160ff1916838001178555610f83565b82800160010185558215610f83579182015b82811115610f82578251825591602001919060010190610f67565b5b509050610f909190610f94565b5090565b5b80821115610fad576000816000905550600101610f95565b5090565b6000604051905090565b600080fd5b600080fd5b600061ffff82169050919050565b610fdc81610fc5565b8114610fe757600080fd5b50565b600081359050610ff981610fd3565b92915050565b60006020828403121561101557611014610fbb565b5b600061102384828501610fea565b91505092915050565b600081519050919050565b600082825260208201905092915050565b60005b8381101561106657808201518184015260208101905061104b565b83811115611075576000848401525b50505050565b6000601f19601f8301169050919050565b60006110978261102c565b6110a18185611037565b93506110b1818560208601611048565b6110ba8161107b565b840191505092915050565b600060208201905081810360008301526110df818461108c565b905092915050565b6000819050919050565b6110fa816110e7565b82525050565b7f4e487b7100000000000000000000000000000000000000000000000000000000600052602160045260246000fd5b600381106111405761113f611100565b5b50565b60008190506111518261112f565b919050565b600061116182611143565b9050919050565b61117181611156565b82525050565b600073ffffffffffffffffffffffffffffffffffffffff82169050919050565b60006111a282611177565b9050919050565b6111b281611197565b82525050565b600060808201905081810360008301526111d2818761108c565b90506111e160208301866110f1565b6111ee6040830185611168565b6111fb60608301846111a9565b95945050505050565b600061120f82611177565b9050919050565b61121f81611204565b82525050565b600060208201905061123a6000830184611216565b92915050565b600080fd5b600080fd5b600080fd5b60008083601f84011261126557611264611240565b5b8235905067ffffffffffffffff81111561128257611281611245565b5b60208301915083600182028301111561129e5761129d61124a565b5b9250929050565b600080602083850312156112bc576112bb610fbb565b5b600083013567ffffffffffffffff8111156112da576112d9610fc0565b5b6112e68582860161124f565b92509250509250929050565b6112fb816110e7565b811461130657600080fd5b50565b600081359050611318816112f2565b92915050565b60008060006040848603121561133757611336610fbb565b5b600084013567ffffffffffffffff81111561135557611354610fc0565b5b6113618682870161124f565b9350935050602061137486828701611309565b9150509250925092565b61138781610fc5565b82525050565b60006020820190506113a2600083018461137e565b92915050565b600080fd5b7f4e487b7100000000000000000000000000000000000000000000000000000000600052604160045260246000fd5b6113e58261107b565b810181811067ffffffffffffffff82111715611404576114036113ad565b5b80604052505050565b6000611417610fb1565b905061142382826113dc565b919050565b600067ffffffffffffffff821115611443576114426113ad565b5b61144c8261107b565b9050602081019050919050565b82818337600083830152505050565b600061147b61147684611428565b61140d565b905082815260208101848484011115611497576114966113a8565b5b6114a2848285611459565b509392505050565b600082601f8301126114bf576114be611240565b5b81356114cf848260208601611468565b91505092915050565b6000602082840312156114ee576114ed610fbb565b5b600082013567ffffffffffffffff81111561150c5761150b610fc0565b5b611518848285016114aa565b91505092915050565b61152a81611204565b811461153557600080fd5b50565b60008135905061154781611521565b92915050565b60006020828403121561156357611562610fbb565b5b600061157184828501611538565b91505092915050565b7f4e487b7100000000000000000000000000000000000000000000000000000000600052602260045260246000fd5b600060028204905060018216806115c157607f821691505b602082108114156115d5576115d461157a565b5b50919050565b7f4f776e61626c653a2063616c6c6572206973206e6f7420746865206f776e6572600082015250565b6000611611602083611037565b915061161c826115db565b602082019050919050565b6000602082019050818103600083015261164081611604565b9050919050565b600081905092915050565b600061165d8261102c565b6116678185611647565b9350611677818560208601611048565b80840191505092915050565b600061168f8284611652565b915081905092915050565b7f7468697320616464726573732068617320616c7265616479206265656e20636c60008201527f61696d6564210000000000000000000000000000000000000000000000000000602082015250565b60006116f6602683611037565b91506117018261169a565b604082019050919050565b60006020820190508181036000830152611725816116e9565b9050919050565b60006117388385611647565b9350611745838584611459565b82840190509392505050565b600061175e82848661172c565b91508190509392505050565b7f61206e65772070726f70657274792068617320686173206265656e206d696e7460008201527f6564210000000000000000000000000000000000000000000000000000000000602082015250565b60006117c6602383611037565b91506117d18261176a565b604082019050919050565b60006040820190506117f1600083018461137e565b8181036020830152611802816117b9565b905092915050565b7f6973206e6f7420746865206f776e657221000000000000000000000000000000600082015250565b6000611840601183611037565b915061184b8261180a565b602082019050919050565b6000602082019050818103600083015261186f81611833565b9050919050565b60006118828385611037565b935061188f838584611459565b6118988361107b565b840190509392505050565b600060608201905081810360008301526118be818688611876565b90506118cd602083018561137e565b6118da60408301846110f1565b95945050505050565b60008190508160005260206000209050919050565b60008154611905816115a9565b61190f8186611037565b9450600182166000811461192a576001811461193c5761196f565b60ff198316865260208601935061196f565b611945856118e3565b60005b8381101561196757815481890152600182019150602081019050611948565b808801955050505b50505092915050565b6000604082019050818103600083015261199281856118f8565b90506119a1602083018461137e565b9392505050565b7f4f776e61626c653a206e6577206f776e657220697320746865207a65726f206160008201527f6464726573730000000000000000000000000000000000000000000000000000602082015250565b6000611a04602683611037565b9150611a0f826119a8565b604082019050919050565b60006020820190508181036000830152611a33816119f7565b9050919050565b6000819050919050565b6000611a5f611a5a611a5584611177565b611a3a565b611177565b9050919050565b6000611a7182611a44565b9050919050565b6000611a8382611a66565b9050919050565b611a9381611a78565b82525050565b7f5468652070726f7065727479206861732061206e6577206f776e657221000000600082015250565b6000611acf601d83611037565b9150611ada82611a99565b602082019050919050565b6000606082019050611afa600083018561137e565b611b076020830184611a8a565b8181036040830152611b1881611ac2565b9050939250505056fe596f752068617665206d696e74656420796f75722070726f70657274792c20616e6420617265206e6f7720746865206f6666696369616c204f776e6572206f6620746869732070726f706572747921a2646970667358221220d7c378def0a4d8b03c13943ca008334bb26c33a8f9f5841b2d1c469e21f6058f64736f6c634300080a0033",
  "immutableReferences": {},
  "source": "pragma solidity ^0.8.0;\nimport \"@openzeppelin/contracts/access/Ownable.sol\";\n\n/// @title Blockify, a contract for real estate transaction\n/// @author Zachary Royals\n/// @notice For now, this contract just make simple transaction, transferring a property token from one owner to the next.\n\ncontract realEstateTransaction is Ownable{\n    constructor() Ownable() {\n    }\n\n    event Mint(address indexed _to, uint16 tokenProperty,string status);\n    event noMint(address indexed _to, string status);\n    event LogForSale(string _addressName, uint16 propertyToken, uint _price);\n    event LogSold(string addressName,uint16 propertyToken);\n    event NewOwner(uint16 propertyToken,address _newOwner, string status);\n\n    mapping(uint16 => address) internal idToOwner;\n    mapping(address => uint16) internal ownerToId;\n    mapping(uint16 => string) public  idToProperty;\n    mapping(string => uint16) internal propertyToId;\n    mapping(uint16 => Property) public properties;\n\n    enum State{\n       Other,\n       ForSale,\n       Sold\n    }\n\n\n    struct Property{\n      string propertyName;\n      uint price;\n      State state;\n      address payable seller;    \n      }\n\n    modifier mintDoesNotExist(string memory _address) {\n        require(propertyToId[_address] == 0, \"this address has already been claimed!\");\n        _;\n    }\n\n    function mintProperty(string calldata _address) public mintDoesNotExist(_address) returns(string memory){\n\n        uint16 propertyToken = uint16(uint(keccak256(abi.encodePacked(_address))));\n        idToOwner[propertyToken] = msg.sender;\n        ownerToId[msg.sender] = propertyToken;\n        propertyToId[_address] = propertyToken;\n        emit Mint(msg.sender, propertyToken,\"a new property has has been minted!\");\n        return \"You have minted your property, and are now the official Owner of this property!\";\n    }\n\n\n    modifier isOwner (uint16 _propertyToken) {\n      require(idToOwner[_propertyToken] == msg.sender, \"is not the owner\");\n        _;\n    }\n\n    modifier paidEnough(string memory _addressName) { \n    uint16 propertyToken = propertyToId[_addressName];\n    require(msg.value >= properties[propertyToken].price); \n    _;\n   }\n\n    modifier forSale(string memory _addressName){\n    uint16 propertyToken = propertyToId[_addressName];\n    require((properties[propertyToken].seller != address(0)) && (properties[propertyToken].state == State.ForSale));\n    _;\n  }\n\n    modifier sold(uint16 _propertyToken) {\n    require(properties[_propertyToken].state == State.Sold, \"not sold, still looking for a buyer\");\n  _;\n  }\n\n  \n    function listPropertyForSale(string calldata _addressName, uint _price) public returns(uint16)\n    {   \n        uint16 propertyToken = ownerToId[msg.sender];\n        require(idToOwner[propertyToken] == msg.sender, \"is not the owner!\");\n        properties[propertyToken] = \n        Property({\n            propertyName: _addressName,\n            price: _price, \n            state: State.ForSale, \n            seller: payable(msg.sender)\n            });\n\n        emit LogForSale(_addressName,propertyToken,_price);\n        return propertyToken;\n    }\n\n    function updateStatus(uint16 _propertyToken) internal{\n        idToOwner[_propertyToken] = msg.sender;\n        properties[_propertyToken].seller = payable(msg.sender);\n        properties[_propertyToken].state = State.Other;\n        emit NewOwner(_propertyToken,properties[_propertyToken].seller,\"The property has a new owner!\");\n\n    }\n\n    function buyProperty(string memory _addressName) public payable \n    forSale(_addressName) paidEnough(_addressName)  {\n        uint16 propertyToken = propertyToId[_addressName];\n        properties[propertyToken].seller.transfer(msg.value);\n        properties[propertyToken].state = State.Sold;\n        emit LogSold(properties[propertyToken].propertyName,propertyToken);\n        updateStatus(propertyToken);\n    }\n}\n",
  "sourcePath": "/Users/zacharyroyals/Desktop/Web3/blockchain-developer-bootcamp-final-project/src/contracts/realEstateTransaction.sol",
  "compiler": {
    "name": "solc",
    "version": "0.8.10+commit.fc410830.Emscripten.clang"
  },
  "schemaVersion": "3.4.3",
  "updatedAt": "2021-12-04T23:34:02.924Z",
  "networkType": "ethereum",
  "devdoc": {
    "author": "Zachary Royals",
    "kind": "dev",
    "methods": {
      "owner()": {
        "details": "Returns the address of the current owner."
      },
      "renounceOwnership()": {
        "details": "Leaves the contract without owner. It will not be possible to call `onlyOwner` functions anymore. Can only be called by the current owner. NOTE: Renouncing ownership will leave the contract without an owner, thereby removing any functionality that is only available to the owner."
      },
      "transferOwnership(address)": {
        "details": "Transfers ownership of the contract to a new account (`newOwner`). Can only be called by the current owner."
      }
    },
    "title": "Blockify, a contract for real estate transaction",
    "version": 1
  },
  "userdoc": {
    "kind": "user",
    "methods": {},
    "notice": "For now, this contract just make simple transaction, transferring a property token from one owner to the next.",
    "version": 1
  }
}