{
  "contractName": "realEstateTransaction",
  "abi": [
    {
      "inputs": [],
      "stateMutability": "nonpayable",
      "type": "constructor"
    },
    {
      "anonymous": false,
      "inputs": [
        {
          "indexed": false,
          "internalType": "string",
          "name": "_addressName",
          "type": "string"
        },
        {
          "indexed": false,
          "internalType": "uint16",
          "name": "propertyToken",
          "type": "uint16"
        },
        {
          "indexed": false,
          "internalType": "uint256",
          "name": "_price",
          "type": "uint256"
        }
      ],
      "name": "LogForSale",
      "type": "event"
    },
    {
      "anonymous": false,
      "inputs": [
        {
          "indexed": false,
          "internalType": "string",
          "name": "addressName",
          "type": "string"
        },
        {
          "indexed": false,
          "internalType": "uint16",
          "name": "propertyToken",
          "type": "uint16"
        }
      ],
      "name": "LogSold",
      "type": "event"
    },
    {
      "anonymous": false,
      "inputs": [
        {
          "indexed": true,
          "internalType": "address",
          "name": "_to",
          "type": "address"
        },
        {
          "indexed": false,
          "internalType": "uint16",
          "name": "tokenProperty",
          "type": "uint16"
        },
        {
          "indexed": false,
          "internalType": "string",
          "name": "status",
          "type": "string"
        }
      ],
      "name": "Mint",
      "type": "event"
    },
    {
      "anonymous": false,
      "inputs": [
        {
          "indexed": false,
          "internalType": "uint16",
          "name": "propertyToken",
          "type": "uint16"
        },
        {
          "indexed": false,
          "internalType": "address",
          "name": "_newOwner",
          "type": "address"
        },
        {
          "indexed": false,
          "internalType": "string",
          "name": "status",
          "type": "string"
        }
      ],
      "name": "NewOwner",
      "type": "event"
    },
    {
      "anonymous": false,
      "inputs": [
        {
          "indexed": true,
          "internalType": "address",
          "name": "previousOwner",
          "type": "address"
        },
        {
          "indexed": true,
          "internalType": "address",
          "name": "newOwner",
          "type": "address"
        }
      ],
      "name": "OwnershipTransferred",
      "type": "event"
    },
    {
      "anonymous": false,
      "inputs": [
        {
          "indexed": true,
          "internalType": "address",
          "name": "_to",
          "type": "address"
        },
        {
          "indexed": false,
          "internalType": "string",
          "name": "status",
          "type": "string"
        }
      ],
      "name": "noMint",
      "type": "event"
    },
    {
      "inputs": [
        {
          "internalType": "uint16",
          "name": "",
          "type": "uint16"
        }
      ],
      "name": "idToProperty",
      "outputs": [
        {
          "internalType": "string",
          "name": "",
          "type": "string"
        }
      ],
      "stateMutability": "view",
      "type": "function"
    },
    {
      "inputs": [],
      "name": "owner",
      "outputs": [
        {
          "internalType": "address",
          "name": "",
          "type": "address"
        }
      ],
      "stateMutability": "view",
      "type": "function"
    },
    {
      "inputs": [
        {
          "internalType": "uint16",
          "name": "",
          "type": "uint16"
        }
      ],
      "name": "properties",
      "outputs": [
        {
          "internalType": "string",
          "name": "propertyName",
          "type": "string"
        },
        {
          "internalType": "uint256",
          "name": "price",
          "type": "uint256"
        },
        {
          "internalType": "enum realEstateTransaction.State",
          "name": "state",
          "type": "uint8"
        },
        {
          "internalType": "address payable",
          "name": "seller",
          "type": "address"
        }
      ],
      "stateMutability": "view",
      "type": "function"
    },
    {
      "inputs": [],
      "name": "renounceOwnership",
      "outputs": [],
      "stateMutability": "nonpayable",
      "type": "function"
    },
    {
      "inputs": [
        {
          "internalType": "address",
          "name": "newOwner",
          "type": "address"
        }
      ],
      "name": "transferOwnership",
      "outputs": [],
      "stateMutability": "nonpayable",
      "type": "function"
    },
    {
      "inputs": [
        {
          "internalType": "string",
          "name": "_address",
          "type": "string"
        }
      ],
      "name": "mintProperty",
      "outputs": [
        {
          "internalType": "string",
          "name": "",
          "type": "string"
        }
      ],
      "stateMutability": "nonpayable",
      "type": "function"
    },
    {
      "inputs": [
        {
          "internalType": "string",
          "name": "_addressName",
          "type": "string"
        },
        {
          "internalType": "uint256",
          "name": "_price",
          "type": "uint256"
        }
      ],
      "name": "listPropertyForSale",
      "outputs": [
        {
          "internalType": "uint16",
          "name": "",
          "type": "uint16"
        }
      ],
      "stateMutability": "nonpayable",
      "type": "function"
    },
    {
      "inputs": [
        {
          "internalType": "uint16",
          "name": "propertyToken",
          "type": "uint16"
        }
      ],
      "name": "buyProperty",
      "outputs": [
        {
          "internalType": "string",
          "name": "",
          "type": "string"
        }
      ],
      "stateMutability": "payable",
      "type": "function"
    }
  ],
  "bytecode": "0x608060405234801561001057600080fd5b5061002d61002261003260201b60201c565b61003a60201b60201c565b6100fe565b600033905090565b60008060009054906101000a900473ffffffffffffffffffffffffffffffffffffffff169050816000806101000a81548173ffffffffffffffffffffffffffffffffffffffff021916908373ffffffffffffffffffffffffffffffffffffffff1602179055508173ffffffffffffffffffffffffffffffffffffffff168173ffffffffffffffffffffffffffffffffffffffff167f8be0079c531659141344cd1fd0a4f28419497f9722a3daafe3b4186f6b6457e060405160405180910390a35050565b61190c8061010d6000396000f3fe60806040526004361061007b5760003560e01c80638da5cb5b1161004e5780638da5cb5b14610144578063d850c94c1461016f578063dd75393e146101ac578063f2fde38b146101e95761007b565b80634a3875e5146100805780634f55f5a2146100bd57806369a4c4e7146100ed578063715018a61461012d575b600080fd5b34801561008c57600080fd5b506100a760048036038101906100a29190610ef4565b610212565b6040516100b49190610fba565b60405180910390f35b6100d760048036038101906100d29190610ef4565b6102b2565b6040516100e49190610fba565b60405180910390f35b3480156100f957600080fd5b50610114600480360381019061010f9190610ef4565b61051f565b60405161012494939291906110ad565b60405180910390f35b34801561013957600080fd5b50610142610604565b005b34801561015057600080fd5b5061015961068c565b604051610166919061111a565b60405180910390f35b34801561017b57600080fd5b506101966004803603810190610191919061126a565b6106b5565b6040516101a39190610fba565b60405180910390f35b3480156101b857600080fd5b506101d360048036038101906101ce91906112df565b610880565b6040516101e0919061134a565b60405180910390f35b3480156101f557600080fd5b50610210600480360381019061020b9190611391565b610ac7565b005b60036020528060005260406000206000915090508054610231906113ed565b80601f016020809104026020016040519081016040528092919081815260200182805461025d906113ed565b80156102aa5780601f1061027f576101008083540402835291602001916102aa565b820191906000526020600020905b81548152906001019060200180831161028d57829003601f168201915b505050505081565b606081600073ffffffffffffffffffffffffffffffffffffffff16600560008361ffff1661ffff16815260200190815260200160002060020160019054906101000a900473ffffffffffffffffffffffffffffffffffffffff1673ffffffffffffffffffffffffffffffffffffffff161415801561037f57506001600281111561033f5761033e610ff5565b5b600560008361ffff1661ffff16815260200190815260200160002060020160009054906101000a900460ff16600281111561037d5761037c610ff5565b5b145b61038857600080fd5b600560008461ffff1661ffff16815260200190815260200160002060010154803410156103b457600080fd5b600560008561ffff1661ffff16815260200190815260200160002060020160019054906101000a900473ffffffffffffffffffffffffffffffffffffffff1673ffffffffffffffffffffffffffffffffffffffff166108fc600560008761ffff1661ffff168152602001908152602001600020600101549081150290604051600060405180830381858888f19350505050158015610456573d6000803e3d6000fd5b506002600560008661ffff1661ffff16815260200190815260200160002060020160006101000a81548160ff0219169083600281111561049957610498610ff5565b5b02179055507f9945a0018add6bd764026bb624584fe1ec615dbdf4f0c701541bb103aec95fdd600560008661ffff1661ffff168152602001908152602001600020600001856040516104ec9291906114b4565b60405180910390a16104fd84610bbf565b6040518060600160405280602181526020016118b66021913992505050919050565b6005602052806000526040600020600091509050806000018054610542906113ed565b80601f016020809104026020016040519081016040528092919081815260200182805461056e906113ed565b80156105bb5780601f10610590576101008083540402835291602001916105bb565b820191906000526020600020905b81548152906001019060200180831161059e57829003601f168201915b5050505050908060010154908060020160009054906101000a900460ff16908060020160019054906101000a900473ffffffffffffffffffffffffffffffffffffffff16905084565b61060c610d37565b73ffffffffffffffffffffffffffffffffffffffff1661062a61068c565b73ffffffffffffffffffffffffffffffffffffffff1614610680576040517f08c379a000000000000000000000000000000000000000000000000000000000815260040161067790611530565b60405180910390fd5b61068a6000610d3f565b565b60008060009054906101000a900473ffffffffffffffffffffffffffffffffffffffff16905090565b60608160006004826040516106ca919061158c565b908152602001604051809103902060009054906101000a900461ffff1661ffff16146106f557600080fd5b600083604051602001610708919061158c565b6040516020818303038152906040528051906020012060001c905033600160008361ffff1661ffff16815260200190815260200160002060006101000a81548173ffffffffffffffffffffffffffffffffffffffff021916908373ffffffffffffffffffffffffffffffffffffffff16021790555080600260003373ffffffffffffffffffffffffffffffffffffffff1673ffffffffffffffffffffffffffffffffffffffff16815260200190815260200160002060006101000a81548161ffff021916908361ffff160217905550806004856040516107e8919061158c565b908152602001604051809103902060006101000a81548161ffff021916908361ffff1602179055503373ffffffffffffffffffffffffffffffffffffffff167fd990caf844a61c2ae557426a4af6167c16983c34b676c7e0e4c58cf860d01d9f826040516108569190611615565b60405180910390a26040518060800160405280604f8152602001611867604f913992505050919050565b600080600260003373ffffffffffffffffffffffffffffffffffffffff1673ffffffffffffffffffffffffffffffffffffffff16815260200190815260200160002060009054906101000a900461ffff1690503373ffffffffffffffffffffffffffffffffffffffff16600160008361ffff1661ffff16815260200190815260200160002060009054906101000a900473ffffffffffffffffffffffffffffffffffffffff1673ffffffffffffffffffffffffffffffffffffffff161461097c576040517f08c379a00000000000000000000000000000000000000000000000000000000081526004016109739061168f565b60405180910390fd5b6040518060800160405280858152602001848152602001600160028111156109a7576109a6610ff5565b5b81526020013373ffffffffffffffffffffffffffffffffffffffff16815250600560008361ffff1661ffff16815260200190815260200160002060008201518160000190805190602001906109fd929190610e03565b506020820151816001015560408201518160020160006101000a81548160ff02191690836002811115610a3357610a32610ff5565b5b021790555060608201518160020160016101000a81548173ffffffffffffffffffffffffffffffffffffffff021916908373ffffffffffffffffffffffffffffffffffffffff1602179055509050507f2c33e0510c0d1fd600e5a01f9fe217f2aac4b216c9ffc4a24241271119fd2232848285604051610ab5939291906116af565b60405180910390a18091505092915050565b610acf610d37565b73ffffffffffffffffffffffffffffffffffffffff16610aed61068c565b73ffffffffffffffffffffffffffffffffffffffff1614610b43576040517f08c379a0000000000000000000000000000000000000000000000000000000008152600401610b3a90611530565b60405180910390fd5b600073ffffffffffffffffffffffffffffffffffffffff168173ffffffffffffffffffffffffffffffffffffffff161415610bb3576040517f08c379a0000000000000000000000000000000000000000000000000000000008152600401610baa9061175f565b60405180910390fd5b610bbc81610d3f565b50565b33600160008361ffff1661ffff16815260200190815260200160002060006101000a81548173ffffffffffffffffffffffffffffffffffffffff021916908373ffffffffffffffffffffffffffffffffffffffff16021790555033600560008361ffff1661ffff16815260200190815260200160002060020160016101000a81548173ffffffffffffffffffffffffffffffffffffffff021916908373ffffffffffffffffffffffffffffffffffffffff1602179055506000600560008361ffff1661ffff16815260200190815260200160002060020160006101000a81548160ff02191690836002811115610cb857610cb7610ff5565b5b02179055507fc494e91d94ebe51a01ef8bea838fecf401a32379e5279ac20d0cedaf546a963081600560008461ffff1661ffff16815260200190815260200160002060020160019054906101000a900473ffffffffffffffffffffffffffffffffffffffff16604051610d2c92919061182a565b60405180910390a150565b600033905090565b60008060009054906101000a900473ffffffffffffffffffffffffffffffffffffffff169050816000806101000a81548173ffffffffffffffffffffffffffffffffffffffff021916908373ffffffffffffffffffffffffffffffffffffffff1602179055508173ffffffffffffffffffffffffffffffffffffffff168173ffffffffffffffffffffffffffffffffffffffff167f8be0079c531659141344cd1fd0a4f28419497f9722a3daafe3b4186f6b6457e060405160405180910390a35050565b828054610e0f906113ed565b90600052602060002090601f016020900481019282610e315760008555610e78565b82601f10610e4a57805160ff1916838001178555610e78565b82800160010185558215610e78579182015b82811115610e77578251825591602001919060010190610e5c565b5b509050610e859190610e89565b5090565b5b80821115610ea2576000816000905550600101610e8a565b5090565b6000604051905090565b600080fd5b600080fd5b600061ffff82169050919050565b610ed181610eba565b8114610edc57600080fd5b50565b600081359050610eee81610ec8565b92915050565b600060208284031215610f0a57610f09610eb0565b5b6000610f1884828501610edf565b91505092915050565b600081519050919050565b600082825260208201905092915050565b60005b83811015610f5b578082015181840152602081019050610f40565b83811115610f6a576000848401525b50505050565b6000601f19601f8301169050919050565b6000610f8c82610f21565b610f968185610f2c565b9350610fa6818560208601610f3d565b610faf81610f70565b840191505092915050565b60006020820190508181036000830152610fd48184610f81565b905092915050565b6000819050919050565b610fef81610fdc565b82525050565b7f4e487b7100000000000000000000000000000000000000000000000000000000600052602160045260246000fd5b6003811061103557611034610ff5565b5b50565b600081905061104682611024565b919050565b600061105682611038565b9050919050565b6110668161104b565b82525050565b600073ffffffffffffffffffffffffffffffffffffffff82169050919050565b60006110978261106c565b9050919050565b6110a78161108c565b82525050565b600060808201905081810360008301526110c78187610f81565b90506110d66020830186610fe6565b6110e3604083018561105d565b6110f0606083018461109e565b95945050505050565b60006111048261106c565b9050919050565b611114816110f9565b82525050565b600060208201905061112f600083018461110b565b92915050565b600080fd5b600080fd5b7f4e487b7100000000000000000000000000000000000000000000000000000000600052604160045260246000fd5b61117782610f70565b810181811067ffffffffffffffff821117156111965761119561113f565b5b80604052505050565b60006111a9610ea6565b90506111b5828261116e565b919050565b600067ffffffffffffffff8211156111d5576111d461113f565b5b6111de82610f70565b9050602081019050919050565b82818337600083830152505050565b600061120d611208846111ba565b61119f565b9050828152602081018484840111156112295761122861113a565b5b6112348482856111eb565b509392505050565b600082601f83011261125157611250611135565b5b81356112618482602086016111fa565b91505092915050565b6000602082840312156112805761127f610eb0565b5b600082013567ffffffffffffffff81111561129e5761129d610eb5565b5b6112aa8482850161123c565b91505092915050565b6112bc81610fdc565b81146112c757600080fd5b50565b6000813590506112d9816112b3565b92915050565b600080604083850312156112f6576112f5610eb0565b5b600083013567ffffffffffffffff81111561131457611313610eb5565b5b6113208582860161123c565b9250506020611331858286016112ca565b9150509250929050565b61134481610eba565b82525050565b600060208201905061135f600083018461133b565b92915050565b61136e816110f9565b811461137957600080fd5b50565b60008135905061138b81611365565b92915050565b6000602082840312156113a7576113a6610eb0565b5b60006113b58482850161137c565b91505092915050565b7f4e487b7100000000000000000000000000000000000000000000000000000000600052602260045260246000fd5b6000600282049050600182168061140557607f821691505b60208210811415611419576114186113be565b5b50919050565b60008190508160005260206000209050919050565b60008154611441816113ed565b61144b8186610f2c565b945060018216600081146114665760018114611478576114ab565b60ff19831686526020860193506114ab565b6114818561141f565b60005b838110156114a357815481890152600182019150602081019050611484565b808801955050505b50505092915050565b600060408201905081810360008301526114ce8185611434565b90506114dd602083018461133b565b9392505050565b7f4f776e61626c653a2063616c6c6572206973206e6f7420746865206f776e6572600082015250565b600061151a602083610f2c565b9150611525826114e4565b602082019050919050565b600060208201905081810360008301526115498161150d565b9050919050565b600081905092915050565b600061156682610f21565b6115708185611550565b9350611580818560208601610f3d565b80840191505092915050565b6000611598828461155b565b915081905092915050565b7f61206e65772070726f70657274792068617320686173206265656e206d696e7460008201527f6564210000000000000000000000000000000000000000000000000000000000602082015250565b60006115ff602383610f2c565b915061160a826115a3565b604082019050919050565b600060408201905061162a600083018461133b565b818103602083015261163b816115f2565b905092915050565b7f6973206e6f7420746865206f776e657221000000000000000000000000000000600082015250565b6000611679601183610f2c565b915061168482611643565b602082019050919050565b600060208201905081810360008301526116a88161166c565b9050919050565b600060608201905081810360008301526116c98186610f81565b90506116d8602083018561133b565b6116e56040830184610fe6565b949350505050565b7f4f776e61626c653a206e6577206f776e657220697320746865207a65726f206160008201527f6464726573730000000000000000000000000000000000000000000000000000602082015250565b6000611749602683610f2c565b9150611754826116ed565b604082019050919050565b600060208201905081810360008301526117788161173c565b9050919050565b6000819050919050565b60006117a461179f61179a8461106c565b61177f565b61106c565b9050919050565b60006117b682611789565b9050919050565b60006117c8826117ab565b9050919050565b6117d8816117bd565b82525050565b7f5468652070726f7065727479206861732061206e6577206f776e657221000000600082015250565b6000611814601d83610f2c565b915061181f826117de565b602082019050919050565b600060608201905061183f600083018561133b565b61184c60208301846117cf565b818103604083015261185d81611807565b9050939250505056fe596f752068617665206d696e74656420796f75722070726f70657274792c20616e6420617265206e6f7720746865206f6666696369616c204f776e6572206f6620746869732070726f706572747921596f7520686176652070757263686173656420746869732070726f706572747921a2646970667358221220dcdab783202cc87365d2c3f0b80c82c4dfb85b0f5956bca2a1c09530af2fd5f864736f6c634300080a0033",
  "immutableReferences": {},
  "source": "pragma solidity ^0.8.0;\nimport \"@openzeppelin/contracts/access/Ownable.sol\";\n\ncontract realEstateTransaction is Ownable{\n\n    event Mint(address indexed _to, uint16 tokenProperty,string status);\n    event noMint(address indexed _to, string status);\n    event LogForSale(string _addressName, uint16 propertyToken, uint _price);\n    event LogSold(string addressName,uint16 propertyToken);\n    event NewOwner(uint16 propertyToken,address _newOwner, string status);\n\n    mapping(uint16 => address) internal idToOwner;\n    mapping(address => uint16) internal ownerToId;\n    mapping(uint16 => string) public  idToProperty;\n    mapping(string => uint16) internal propertyToId;\n    mapping(uint16 => Property) public properties;\n\n    constructor() Ownable() {\n    }\n\n    modifier mintDoesNotExist(string memory _address) {\n        require(propertyToId[_address] == 0);\n        _;\n    }\n    // set limit on property\n    function mintProperty(string memory _address) public mintDoesNotExist(_address) returns(string memory){\n\n        uint16 propertyToken = uint16(uint(keccak256(abi.encodePacked(_address))));\n        idToOwner[propertyToken] = msg.sender;\n        ownerToId[msg.sender] = propertyToken;\n        propertyToId[_address] = propertyToken;\n        emit Mint(msg.sender, propertyToken,\"a new property has has been minted!\");\n        return \"You have minted your property, and are now the official Owner of this property!\";\n    }\n\n    enum State{\n       Other,\n       ForSale,\n       Sold\n    }\n\n    struct Property{\n      string propertyName;\n      uint price;\n      State state;\n      address payable seller;    \n      }\n\n    // fetch owner\n    modifier isOwner (uint16 propertyToken) {\n      require(idToOwner[propertyToken] == msg.sender, \"is not the owner\");\n        _;\n    }\n\n    modifier paidEnough(uint _price) { \n    require(msg.value >= _price); \n    _;\n   }\n\n    modifier forSale(uint16 _propertyToken){\n    require((properties[_propertyToken].seller != address(0)) && (properties[_propertyToken].state == State.ForSale));\n    _;\n  }\n\n    modifier sold(uint16 _propertyToken) {\n    require(properties[_propertyToken].state == State.Sold, \"not sold, still looking for a buyer\");\n  _;\n  }\n\n  // test for ownership\n    function listPropertyForSale(string memory _addressName, uint _price) public returns(uint16)\n    {   \n        uint16 propertyToken = ownerToId[msg.sender];\n        require(idToOwner[propertyToken] == msg.sender, \"is not the owner!\");\n        properties[propertyToken] = \n        Property({\n            propertyName: _addressName,\n            price: _price, \n            state: State.ForSale, \n            seller: payable(msg.sender)\n            });\n\n        emit LogForSale(_addressName,propertyToken,_price);\n        return propertyToken;\n    }\n\n    function updateStatus(uint16 propertyToken) internal{\n        idToOwner[propertyToken] = msg.sender;\n        properties[propertyToken].seller = payable(msg.sender);\n        properties[propertyToken].state = State.Other;\n        emit NewOwner(propertyToken,properties[propertyToken].seller,\"The property has a new owner!\");\n\n    }\n  // change seller to owner, seller is inferred by the status\n  //test for transfer of funds\n    function buyProperty(uint16 propertyToken) public payable \n    forSale(propertyToken) paidEnough(properties[propertyToken].price) returns(string memory){\n        properties[propertyToken].seller.transfer(properties[propertyToken].price);\n        properties[propertyToken].state = State.Sold;\n        emit LogSold(properties[propertyToken].propertyName,propertyToken);\n        updateStatus(propertyToken);\n        return \"You have purchased this property!\";\n\n    }\n}\n",
  "sourcePath": "/Users/zacharyroyals/Desktop/Projects/Web3/dApp-nodeJS-webpack/blockchain-developer-bootcamp-final-project/app/contracts/realEstateTransaction.sol",
  "compiler": {
    "name": "solc",
    "version": "0.8.10+commit.fc410830.Emscripten.clang"
  },
  "schemaVersion": "3.4.3",
  "updatedAt": "2021-11-27T23:06:22.900Z",
  "devdoc": {
    "kind": "dev",
    "methods": {
      "owner()": {
        "details": "Returns the address of the current owner."
      },
      "renounceOwnership()": {
        "details": "Leaves the contract without owner. It will not be possible to call `onlyOwner` functions anymore. Can only be called by the current owner. NOTE: Renouncing ownership will leave the contract without an owner, thereby removing any functionality that is only available to the owner."
      },
      "transferOwnership(address)": {
        "details": "Transfers ownership of the contract to a new account (`newOwner`). Can only be called by the current owner."
      }
    },
    "version": 1
  },
  "userdoc": {
    "kind": "user",
    "methods": {},
    "version": 1
  }
}